{
  "_format": "hh-sol-artifact-1",
  "contractName": "Smart",
  "sourceName": "contracts/Smart.sol",
  "abi": [
    {
      "inputs": [],
      "stateMutability": "nonpayable",
      "type": "constructor"
    },
    {
      "inputs": [],
      "name": "ApprovalCallerNotOwnerNorApproved",
      "type": "error"
    },
    {
      "inputs": [],
      "name": "ApprovalQueryForNonexistentToken",
      "type": "error"
    },
    {
      "inputs": [],
      "name": "BalanceQueryForZeroAddress",
      "type": "error"
    },
    {
      "inputs": [],
      "name": "MintERC2309QuantityExceedsLimit",
      "type": "error"
    },
    {
      "inputs": [],
      "name": "MintToZeroAddress",
      "type": "error"
    },
    {
      "inputs": [],
      "name": "MintZeroQuantity",
      "type": "error"
    },
    {
      "inputs": [],
      "name": "OwnerQueryForNonexistentToken",
      "type": "error"
    },
    {
      "inputs": [],
      "name": "OwnershipNotInitializedForExtraData",
      "type": "error"
    },
    {
      "inputs": [],
      "name": "TransferCallerNotOwnerNorApproved",
      "type": "error"
    },
    {
      "inputs": [],
      "name": "TransferFromIncorrectOwner",
      "type": "error"
    },
    {
      "inputs": [],
      "name": "TransferToNonERC721ReceiverImplementer",
      "type": "error"
    },
    {
      "inputs": [],
      "name": "TransferToZeroAddress",
      "type": "error"
    },
    {
      "inputs": [],
      "name": "URIQueryForNonexistentToken",
      "type": "error"
    },
    {
      "anonymous": false,
      "inputs": [
        {
          "indexed": true,
          "internalType": "address",
          "name": "owner",
          "type": "address"
        },
        {
          "indexed": true,
          "internalType": "address",
          "name": "approved",
          "type": "address"
        },
        {
          "indexed": true,
          "internalType": "uint256",
          "name": "tokenId",
          "type": "uint256"
        }
      ],
      "name": "Approval",
      "type": "event"
    },
    {
      "anonymous": false,
      "inputs": [
        {
          "indexed": true,
          "internalType": "address",
          "name": "owner",
          "type": "address"
        },
        {
          "indexed": true,
          "internalType": "address",
          "name": "operator",
          "type": "address"
        },
        {
          "indexed": false,
          "internalType": "bool",
          "name": "approved",
          "type": "bool"
        }
      ],
      "name": "ApprovalForAll",
      "type": "event"
    },
    {
      "anonymous": false,
      "inputs": [
        {
          "indexed": true,
          "internalType": "uint256",
          "name": "fromTokenId",
          "type": "uint256"
        },
        {
          "indexed": false,
          "internalType": "uint256",
          "name": "toTokenId",
          "type": "uint256"
        },
        {
          "indexed": true,
          "internalType": "address",
          "name": "from",
          "type": "address"
        },
        {
          "indexed": true,
          "internalType": "address",
          "name": "to",
          "type": "address"
        }
      ],
      "name": "ConsecutiveTransfer",
      "type": "event"
    },
    {
      "anonymous": false,
      "inputs": [
        {
          "indexed": true,
          "internalType": "address",
          "name": "from",
          "type": "address"
        },
        {
          "indexed": true,
          "internalType": "address",
          "name": "to",
          "type": "address"
        },
        {
          "indexed": true,
          "internalType": "uint256",
          "name": "tokenId",
          "type": "uint256"
        }
      ],
      "name": "Transfer",
      "type": "event"
    },
    {
      "inputs": [
        {
          "internalType": "address",
          "name": "to",
          "type": "address"
        },
        {
          "internalType": "uint256",
          "name": "tokenId",
          "type": "uint256"
        }
      ],
      "name": "approve",
      "outputs": [],
      "stateMutability": "payable",
      "type": "function"
    },
    {
      "inputs": [
        {
          "internalType": "address",
          "name": "owner",
          "type": "address"
        }
      ],
      "name": "balanceOf",
      "outputs": [
        {
          "internalType": "uint256",
          "name": "",
          "type": "uint256"
        }
      ],
      "stateMutability": "view",
      "type": "function"
    },
    {
      "inputs": [
        {
          "internalType": "uint256",
          "name": "tokenId",
          "type": "uint256"
        }
      ],
      "name": "getApproved",
      "outputs": [
        {
          "internalType": "address",
          "name": "",
          "type": "address"
        }
      ],
      "stateMutability": "view",
      "type": "function"
    },
    {
      "inputs": [
        {
          "internalType": "address",
          "name": "_owner",
          "type": "address"
        }
      ],
      "name": "getBalance",
      "outputs": [
        {
          "internalType": "uint256",
          "name": "",
          "type": "uint256"
        }
      ],
      "stateMutability": "view",
      "type": "function"
    },
    {
      "inputs": [
        {
          "internalType": "address",
          "name": "owner",
          "type": "address"
        },
        {
          "internalType": "address",
          "name": "operator",
          "type": "address"
        }
      ],
      "name": "isApprovedForAll",
      "outputs": [
        {
          "internalType": "bool",
          "name": "",
          "type": "bool"
        }
      ],
      "stateMutability": "view",
      "type": "function"
    },
    {
      "inputs": [],
      "name": "maxLimit",
      "outputs": [
        {
          "internalType": "uint256",
          "name": "",
          "type": "uint256"
        }
      ],
      "stateMutability": "view",
      "type": "function"
    },
    {
      "inputs": [
        {
          "internalType": "uint256",
          "name": "quantity",
          "type": "uint256"
        }
      ],
      "name": "mint",
      "outputs": [],
      "stateMutability": "payable",
      "type": "function"
    },
    {
      "inputs": [],
      "name": "name",
      "outputs": [
        {
          "internalType": "string",
          "name": "",
          "type": "string"
        }
      ],
      "stateMutability": "view",
      "type": "function"
    },
    {
      "inputs": [],
      "name": "owner",
      "outputs": [
        {
          "internalType": "address",
          "name": "",
          "type": "address"
        }
      ],
      "stateMutability": "view",
      "type": "function"
    },
    {
      "inputs": [
        {
          "internalType": "uint256",
          "name": "tokenId",
          "type": "uint256"
        }
      ],
      "name": "ownerOf",
      "outputs": [
        {
          "internalType": "address",
          "name": "",
          "type": "address"
        }
      ],
      "stateMutability": "view",
      "type": "function"
    },
    {
      "inputs": [],
      "name": "prompt",
      "outputs": [
        {
          "internalType": "string",
          "name": "",
          "type": "string"
        }
      ],
      "stateMutability": "view",
      "type": "function"
    },
    {
      "inputs": [],
      "name": "promptDescription",
      "outputs": [
        {
          "internalType": "string",
          "name": "",
          "type": "string"
        }
      ],
      "stateMutability": "view",
      "type": "function"
    },
    {
      "inputs": [
        {
          "internalType": "address",
          "name": "from",
          "type": "address"
        },
        {
          "internalType": "address",
          "name": "to",
          "type": "address"
        },
        {
          "internalType": "uint256",
          "name": "tokenId",
          "type": "uint256"
        }
      ],
      "name": "safeTransferFrom",
      "outputs": [],
      "stateMutability": "payable",
      "type": "function"
    },
    {
      "inputs": [
        {
          "internalType": "address",
          "name": "from",
          "type": "address"
        },
        {
          "internalType": "address",
          "name": "to",
          "type": "address"
        },
        {
          "internalType": "uint256",
          "name": "tokenId",
          "type": "uint256"
        },
        {
          "internalType": "bytes",
          "name": "_data",
          "type": "bytes"
        }
      ],
      "name": "safeTransferFrom",
      "outputs": [],
      "stateMutability": "payable",
      "type": "function"
    },
    {
      "inputs": [
        {
          "internalType": "address",
          "name": "operator",
          "type": "address"
        },
        {
          "internalType": "bool",
          "name": "approved",
          "type": "bool"
        }
      ],
      "name": "setApprovalForAll",
      "outputs": [],
      "stateMutability": "nonpayable",
      "type": "function"
    },
    {
      "inputs": [
        {
          "internalType": "bytes4",
          "name": "interfaceId",
          "type": "bytes4"
        }
      ],
      "name": "supportsInterface",
      "outputs": [
        {
          "internalType": "bool",
          "name": "",
          "type": "bool"
        }
      ],
      "stateMutability": "view",
      "type": "function"
    },
    {
      "inputs": [],
      "name": "symbol",
      "outputs": [
        {
          "internalType": "string",
          "name": "",
          "type": "string"
        }
      ],
      "stateMutability": "view",
      "type": "function"
    },
    {
      "inputs": [
        {
          "internalType": "uint256",
          "name": "tokenId",
          "type": "uint256"
        }
      ],
      "name": "tokenURI",
      "outputs": [
        {
          "internalType": "string",
          "name": "",
          "type": "string"
        }
      ],
      "stateMutability": "view",
      "type": "function"
    },
    {
      "inputs": [],
      "name": "totalSupply",
      "outputs": [
        {
          "internalType": "uint256",
          "name": "",
          "type": "uint256"
        }
      ],
      "stateMutability": "view",
      "type": "function"
    },
    {
      "inputs": [
        {
          "internalType": "address",
          "name": "from",
          "type": "address"
        },
        {
          "internalType": "address",
          "name": "to",
          "type": "address"
        },
        {
          "internalType": "uint256",
          "name": "tokenId",
          "type": "uint256"
        }
      ],
      "name": "transferFrom",
      "outputs": [],
      "stateMutability": "payable",
      "type": "function"
    }
  ],
  "bytecode": "0x608060405260056009556040518060800160405280605181526020016200254360519139600a9081620000339190620003db565b506040518060600160405280602f815260200162002594602f9139600b90816200005e9190620003db565b503480156200006c57600080fd5b506040518060400160405280600581526020017f44656c74610000000000000000000000000000000000000000000000000000008152506040518060400160405280600481526020017f42474d49000000000000000000000000000000000000000000000000000000008152508160029081620000ea9190620003db565b508060039081620000fc9190620003db565b506200010d6200015c60201b60201c565b600081905550505033600860006101000a81548173ffffffffffffffffffffffffffffffffffffffff021916908373ffffffffffffffffffffffffffffffffffffffff160217905550620004c2565b600090565b600081519050919050565b7f4e487b7100000000000000000000000000000000000000000000000000000000600052604160045260246000fd5b7f4e487b7100000000000000000000000000000000000000000000000000000000600052602260045260246000fd5b60006002820490506001821680620001e357607f821691505b602082108103620001f957620001f86200019b565b5b50919050565b60008190508160005260206000209050919050565b60006020601f8301049050919050565b600082821b905092915050565b600060088302620002637fffffffffffffffffffffffffffffffffffffffffffffffffffffffffffffffff8262000224565b6200026f868362000224565b95508019841693508086168417925050509392505050565b6000819050919050565b6000819050919050565b6000620002bc620002b6620002b08462000287565b62000291565b62000287565b9050919050565b6000819050919050565b620002d8836200029b565b620002f0620002e782620002c3565b84845462000231565b825550505050565b600090565b62000307620002f8565b62000314818484620002cd565b505050565b5b818110156200033c5762000330600082620002fd565b6001810190506200031a565b5050565b601f8211156200038b576200035581620001ff565b620003608462000214565b8101602085101562000370578190505b620003886200037f8562000214565b83018262000319565b50505b505050565b600082821c905092915050565b6000620003b06000198460080262000390565b1980831691505092915050565b6000620003cb83836200039d565b9150826002028217905092915050565b620003e68262000161565b67ffffffffffffffff8111156200040257620004016200016c565b5b6200040e8254620001ca565b6200041b82828562000340565b600060209050601f8311600181146200045357600084156200043e578287015190505b6200044a8582620003bd565b865550620004ba565b601f1984166200046386620001ff565b60005b828110156200048d5784890151825560018201915060208501945060208101905062000466565b86831015620004ad5784890151620004a9601f8916826200039d565b8355505b6001600288020188555050505b505050505050565b61207180620004d26000396000f3fe60806040526004361061011f5760003560e01c80637c65d711116100a0578063a22cb46511610064578063a22cb465146103b5578063b88d4fde146103de578063c87b56dd146103fa578063e985e9c514610437578063f8b2cb4f146104745761011f565b80637c65d711146102ed5780638da5cb5b14610318578063953637311461034357806395d89b411461036e578063a0712d68146103995761011f565b80631a861d26116100e75780631a861d261461021057806323b872dd1461023b57806342842e0e146102575780636352211e1461027357806370a08231146102b05761011f565b806301ffc9a71461012457806306fdde0314610161578063081812fc1461018c578063095ea7b3146101c957806318160ddd146101e5575b600080fd5b34801561013057600080fd5b5061014b600480360381019061014691906117c3565b6104b1565b604051610158919061180b565b60405180910390f35b34801561016d57600080fd5b50610176610543565b60405161018391906118b6565b60405180910390f35b34801561019857600080fd5b506101b360048036038101906101ae919061190e565b6105d5565b6040516101c0919061197c565b60405180910390f35b6101e360048036038101906101de91906119c3565b610654565b005b3480156101f157600080fd5b506101fa610798565b6040516102079190611a12565b60405180910390f35b34801561021c57600080fd5b506102256107af565b6040516102329190611a12565b60405180910390f35b61025560048036038101906102509190611a2d565b6107b5565b005b610271600480360381019061026c9190611a2d565b610ad7565b005b34801561027f57600080fd5b5061029a6004803603810190610295919061190e565b610af7565b6040516102a7919061197c565b60405180910390f35b3480156102bc57600080fd5b506102d760048036038101906102d29190611a80565b610b09565b6040516102e49190611a12565b60405180910390f35b3480156102f957600080fd5b50610302610bc1565b60405161030f91906118b6565b60405180910390f35b34801561032457600080fd5b5061032d610c4f565b60405161033a919061197c565b60405180910390f35b34801561034f57600080fd5b50610358610c75565b60405161036591906118b6565b60405180910390f35b34801561037a57600080fd5b50610383610d07565b60405161039091906118b6565b60405180910390f35b6103b360048036038101906103ae919061190e565b610d99565b005b3480156103c157600080fd5b506103dc60048036038101906103d79190611ad9565b610e8d565b005b6103f860048036038101906103f39190611c4e565b610f98565b005b34801561040657600080fd5b50610421600480360381019061041c919061190e565b61100b565b60405161042e91906118b6565b60405180910390f35b34801561044357600080fd5b5061045e60048036038101906104599190611cd1565b6110a9565b60405161046b919061180b565b60405180910390f35b34801561048057600080fd5b5061049b60048036038101906104969190611a80565b61113d565b6040516104a89190611a12565b60405180910390f35b60006301ffc9a760e01b827bffffffffffffffffffffffffffffffffffffffffffffffffffffffff1916148061050c57506380ac58cd60e01b827bffffffffffffffffffffffffffffffffffffffffffffffffffffffff1916145b8061053c5750635b5e139f60e01b827bffffffffffffffffffffffffffffffffffffffffffffffffffffffff1916145b9050919050565b60606002805461055290611d40565b80601f016020809104026020016040519081016040528092919081815260200182805461057e90611d40565b80156105cb5780601f106105a0576101008083540402835291602001916105cb565b820191906000526020600020905b8154815290600101906020018083116105ae57829003601f168201915b5050505050905090565b60006105e08261114f565b610616576040517fcf4700e400000000000000000000000000000000000000000000000000000000815260040160405180910390fd5b6006600083815260200190815260200160002060000160009054906101000a900473ffffffffffffffffffffffffffffffffffffffff169050919050565b600061065f82610af7565b90508073ffffffffffffffffffffffffffffffffffffffff166106806111ae565b73ffffffffffffffffffffffffffffffffffffffff16146106e3576106ac816106a76111ae565b6110a9565b6106e2576040517fcfb3b94200000000000000000000000000000000000000000000000000000000815260040160405180910390fd5b5b826006600084815260200190815260200160002060000160006101000a81548173ffffffffffffffffffffffffffffffffffffffff021916908373ffffffffffffffffffffffffffffffffffffffff160217905550818373ffffffffffffffffffffffffffffffffffffffff168273ffffffffffffffffffffffffffffffffffffffff167f8c5be1e5ebec7d5bd14f71427d1e84f3dd0314c0f7b2291e5b200ac8c7c3b92560405160405180910390a4505050565b60006107a26111b6565b6001546000540303905090565b60095481565b60006107c0826111bb565b90508373ffffffffffffffffffffffffffffffffffffffff168173ffffffffffffffffffffffffffffffffffffffff1614610827576040517fa114810000000000000000000000000000000000000000000000000000000000815260040160405180910390fd5b60008061083384611287565b9150915061084981876108446111ae565b6112ae565b6108955761085e866108596111ae565b6110a9565b610894576040517f59c896be00000000000000000000000000000000000000000000000000000000815260040160405180910390fd5b5b600073ffffffffffffffffffffffffffffffffffffffff168573ffffffffffffffffffffffffffffffffffffffff16036108fb576040517fea553b3400000000000000000000000000000000000000000000000000000000815260040160405180910390fd5b61090886868660016112f2565b801561091357600082555b600560008773ffffffffffffffffffffffffffffffffffffffff1673ffffffffffffffffffffffffffffffffffffffff168152602001908152602001600020600081546001900391905081905550600560008673ffffffffffffffffffffffffffffffffffffffff1673ffffffffffffffffffffffffffffffffffffffff16815260200190815260200160002060008154600101919050819055506109e1856109bd8888876112f8565b7c020000000000000000000000000000000000000000000000000000000017611320565b600460008681526020019081526020016000208190555060007c0200000000000000000000000000000000000000000000000000000000841603610a675760006001850190506000600460008381526020019081526020016000205403610a65576000548114610a64578360046000838152602001908152602001600020819055505b5b505b838573ffffffffffffffffffffffffffffffffffffffff168773ffffffffffffffffffffffffffffffffffffffff167fddf252ad1be2c89b69c2b068fc378daa952ba7f163c4a11628f55a4df523b3ef60405160405180910390a4610acf868686600161134b565b505050505050565b610af283838360405180602001604052806000815250610f98565b505050565b6000610b02826111bb565b9050919050565b60008073ffffffffffffffffffffffffffffffffffffffff168273ffffffffffffffffffffffffffffffffffffffff1603610b70576040517f8f4eb60400000000000000000000000000000000000000000000000000000000815260040160405180910390fd5b67ffffffffffffffff600560008473ffffffffffffffffffffffffffffffffffffffff1673ffffffffffffffffffffffffffffffffffffffff16815260200190815260200160002054169050919050565b600b8054610bce90611d40565b80601f0160208091040260200160405190810160405280929190818152602001828054610bfa90611d40565b8015610c475780601f10610c1c57610100808354040283529160200191610c47565b820191906000526020600020905b815481529060010190602001808311610c2a57829003601f168201915b505050505081565b600860009054906101000a900473ffffffffffffffffffffffffffffffffffffffff1681565b6060600b8054610c8490611d40565b80601f0160208091040260200160405190810160405280929190818152602001828054610cb090611d40565b8015610cfd5780601f10610cd257610100808354040283529160200191610cfd565b820191906000526020600020905b815481529060010190602001808311610ce057829003601f168201915b5050505050905090565b606060038054610d1690611d40565b80601f0160208091040260200160405190810160405280929190818152602001828054610d4290611d40565b8015610d8f5780601f10610d6457610100808354040283529160200191610d8f565b820191906000526020600020905b815481529060010190602001808311610d7257829003601f168201915b5050505050905090565b600860009054906101000a900473ffffffffffffffffffffffffffffffffffffffff1673ffffffffffffffffffffffffffffffffffffffff163373ffffffffffffffffffffffffffffffffffffffff1614610e29576040517f08c379a0000000000000000000000000000000000000000000000000000000008152600401610e2090611de3565b60405180910390fd5b60095481610e35610798565b610e3f9190611e32565b1115610e80576040517f08c379a0000000000000000000000000000000000000000000000000000000008152600401610e7790611ed8565b60405180910390fd5b610e8a3382611351565b50565b8060076000610e9a6111ae565b73ffffffffffffffffffffffffffffffffffffffff1673ffffffffffffffffffffffffffffffffffffffff16815260200190815260200160002060008473ffffffffffffffffffffffffffffffffffffffff1673ffffffffffffffffffffffffffffffffffffffff16815260200190815260200160002060006101000a81548160ff0219169083151502179055508173ffffffffffffffffffffffffffffffffffffffff16610f476111ae565b73ffffffffffffffffffffffffffffffffffffffff167f17307eab39ab6107e8899845ad3d59bd9653f200f220920489ca2b5937696c3183604051610f8c919061180b565b60405180910390a35050565b610fa38484846107b5565b60008373ffffffffffffffffffffffffffffffffffffffff163b1461100557610fce8484848461150c565b611004576040517fd1a57ed600000000000000000000000000000000000000000000000000000000815260040160405180910390fd5b5b50505050565b60606110168261114f565b61104c576040517fa14c4b5000000000000000000000000000000000000000000000000000000000815260040160405180910390fd5b600061105661165c565b9050600081510361107657604051806020016040528060008152506110a1565b80611080846116ee565b604051602001611091929190611f34565b6040516020818303038152906040525b915050919050565b6000600760008473ffffffffffffffffffffffffffffffffffffffff1673ffffffffffffffffffffffffffffffffffffffff16815260200190815260200160002060008373ffffffffffffffffffffffffffffffffffffffff1673ffffffffffffffffffffffffffffffffffffffff16815260200190815260200160002060009054906101000a900460ff16905092915050565b600061114882610b09565b9050919050565b60008161115a6111b6565b11158015611169575060005482105b80156111a7575060007c0100000000000000000000000000000000000000000000000000000000600460008581526020019081526020016000205416145b9050919050565b600033905090565b600090565b600080829050806111ca6111b6565b116112505760005481101561124f5760006004600083815260200190815260200160002054905060007c010000000000000000000000000000000000000000000000000000000082160361124d575b60008103611243576004600083600190039350838152602001908152602001600020549050611219565b8092505050611282565b505b5b6040517fdf2d9b4200000000000000000000000000000000000000000000000000000000815260040160405180910390fd5b919050565b60008060006006600085815260200190815260200160002090508092508254915050915091565b600073ffffffffffffffffffffffffffffffffffffffff8316925073ffffffffffffffffffffffffffffffffffffffff821691508382148383141790509392505050565b50505050565b60008060e883901c905060e861130f86868461173e565b62ffffff16901b9150509392505050565b600073ffffffffffffffffffffffffffffffffffffffff83169250814260a01b178317905092915050565b50505050565b60008054905060008203611391576040517fb562e8dd00000000000000000000000000000000000000000000000000000000815260040160405180910390fd5b61139e60008483856112f2565b600160406001901b178202600560008573ffffffffffffffffffffffffffffffffffffffff1673ffffffffffffffffffffffffffffffffffffffff168152602001908152602001600020600082825401925050819055506114158361140660008660006112f8565b61140f85611747565b17611320565b6004600083815260200190815260200160002081905550600080838301905073ffffffffffffffffffffffffffffffffffffffff85169150828260007fddf252ad1be2c89b69c2b068fc378daa952ba7f163c4a11628f55a4df523b3ef600080a4600183015b8181146114b657808360007fddf252ad1be2c89b69c2b068fc378daa952ba7f163c4a11628f55a4df523b3ef600080a460018101905061147b565b50600082036114f1576040517f2e07630000000000000000000000000000000000000000000000000000000000815260040160405180910390fd5b806000819055505050611507600084838561134b565b505050565b60008373ffffffffffffffffffffffffffffffffffffffff1663150b7a026115326111ae565b8786866040518563ffffffff1660e01b81526004016115549493929190611fad565b6020604051808303816000875af192505050801561159057506040513d601f19601f8201168201806040525081019061158d919061200e565b60015b611609573d80600081146115c0576040519150601f19603f3d011682016040523d82523d6000602084013e6115c5565b606091505b506000815103611601576040517fd1a57ed600000000000000000000000000000000000000000000000000000000815260040160405180910390fd5b805181602001fd5b63150b7a0260e01b7bffffffffffffffffffffffffffffffffffffffffffffffffffffffff1916817bffffffffffffffffffffffffffffffffffffffffffffffffffffffff191614915050949350505050565b6060600a805461166b90611d40565b80601f016020809104026020016040519081016040528092919081815260200182805461169790611d40565b80156116e45780601f106116b9576101008083540402835291602001916116e4565b820191906000526020600020905b8154815290600101906020018083116116c757829003601f168201915b5050505050905090565b606060a060405101806040526020810391506000825281835b60011561172957600184039350600a81066030018453600a8104905080611707575b50828103602084039350808452505050919050565b60009392505050565b60006001821460e11b9050919050565b6000604051905090565b600080fd5b600080fd5b60007fffffffff0000000000000000000000000000000000000000000000000000000082169050919050565b6117a08161176b565b81146117ab57600080fd5b50565b6000813590506117bd81611797565b92915050565b6000602082840312156117d9576117d8611761565b5b60006117e7848285016117ae565b91505092915050565b60008115159050919050565b611805816117f0565b82525050565b600060208201905061182060008301846117fc565b92915050565b600081519050919050565b600082825260208201905092915050565b60005b83811015611860578082015181840152602081019050611845565b60008484015250505050565b6000601f19601f8301169050919050565b600061188882611826565b6118928185611831565b93506118a2818560208601611842565b6118ab8161186c565b840191505092915050565b600060208201905081810360008301526118d0818461187d565b905092915050565b6000819050919050565b6118eb816118d8565b81146118f657600080fd5b50565b600081359050611908816118e2565b92915050565b60006020828403121561192457611923611761565b5b6000611932848285016118f9565b91505092915050565b600073ffffffffffffffffffffffffffffffffffffffff82169050919050565b60006119668261193b565b9050919050565b6119768161195b565b82525050565b6000602082019050611991600083018461196d565b92915050565b6119a08161195b565b81146119ab57600080fd5b50565b6000813590506119bd81611997565b92915050565b600080604083850312156119da576119d9611761565b5b60006119e8858286016119ae565b92505060206119f9858286016118f9565b9150509250929050565b611a0c816118d8565b82525050565b6000602082019050611a276000830184611a03565b92915050565b600080600060608486031215611a4657611a45611761565b5b6000611a54868287016119ae565b9350506020611a65868287016119ae565b9250506040611a76868287016118f9565b9150509250925092565b600060208284031215611a9657611a95611761565b5b6000611aa4848285016119ae565b91505092915050565b611ab6816117f0565b8114611ac157600080fd5b50565b600081359050611ad381611aad565b92915050565b60008060408385031215611af057611aef611761565b5b6000611afe858286016119ae565b9250506020611b0f85828601611ac4565b9150509250929050565b600080fd5b600080fd5b7f4e487b7100000000000000000000000000000000000000000000000000000000600052604160045260246000fd5b611b5b8261186c565b810181811067ffffffffffffffff82111715611b7a57611b79611b23565b5b80604052505050565b6000611b8d611757565b9050611b998282611b52565b919050565b600067ffffffffffffffff821115611bb957611bb8611b23565b5b611bc28261186c565b9050602081019050919050565b82818337600083830152505050565b6000611bf1611bec84611b9e565b611b83565b905082815260208101848484011115611c0d57611c0c611b1e565b5b611c18848285611bcf565b509392505050565b600082601f830112611c3557611c34611b19565b5b8135611c45848260208601611bde565b91505092915050565b60008060008060808587031215611c6857611c67611761565b5b6000611c76878288016119ae565b9450506020611c87878288016119ae565b9350506040611c98878288016118f9565b925050606085013567ffffffffffffffff811115611cb957611cb8611766565b5b611cc587828801611c20565b91505092959194509250565b60008060408385031215611ce857611ce7611761565b5b6000611cf6858286016119ae565b9250506020611d07858286016119ae565b9150509250929050565b7f4e487b7100000000000000000000000000000000000000000000000000000000600052602260045260246000fd5b60006002820490506001821680611d5857607f821691505b602082108103611d6b57611d6a611d11565b5b50919050565b7f43616e20626520706572666f726d656420627920746865206f776e6572206f6e60008201527f6c792e0000000000000000000000000000000000000000000000000000000000602082015250565b6000611dcd602383611831565b9150611dd882611d71565b604082019050919050565b60006020820190508181036000830152611dfc81611dc0565b9050919050565b7f4e487b7100000000000000000000000000000000000000000000000000000000600052601160045260246000fd5b6000611e3d826118d8565b9150611e48836118d8565b9250828201905080821115611e6057611e5f611e03565b5b92915050565b7f596f752063616e206e6f74206d696e74206d6f7265207468616e2035204e465460008201527f7300000000000000000000000000000000000000000000000000000000000000602082015250565b6000611ec2602183611831565b9150611ecd82611e66565b604082019050919050565b60006020820190508181036000830152611ef181611eb5565b9050919050565b600081905092915050565b6000611f0e82611826565b611f188185611ef8565b9350611f28818560208601611842565b80840191505092915050565b6000611f408285611f03565b9150611f4c8284611f03565b91508190509392505050565b600081519050919050565b600082825260208201905092915050565b6000611f7f82611f58565b611f898185611f63565b9350611f99818560208601611842565b611fa28161186c565b840191505092915050565b6000608082019050611fc2600083018761196d565b611fcf602083018661196d565b611fdc6040830185611a03565b8181036060830152611fee8184611f74565b905095945050505050565b60008151905061200881611797565b92915050565b60006020828403121561202457612023611761565b5b600061203284828501611ff9565b9150509291505056fea264697066735822122085f4305bbe2755b13a02f28d336d75e7b3853f35887a050b490002ffa6dfe54364736f6c6343000812003368747470733a2f2f676174657761792e70696e6174612e636c6f75642f697066732f516d526358317661474b396d424532736d776e394d7661355433665851687a32395066685a6845695a6e793867552f666f6f7462616c6c20706c617965722073636f72696e67206120746f756368646f776e20696e20746865207261696e",
  "linkReferences": {},
  "deployedLinkReferences": {}
}